:040000000C94460016
:100004000C9400000C9400000C9400000C9400006C
:100014000C9476000C9400000C9472000C94000074
:100024000C9400000C9400000C9400000C9400004C
:100034000C9400000C9400000C9400000C9400003C
:100044000C9400000C9400000C9400000C9400002C
:10005400000041494E30203D2025312E34662000D9
:1000640080C02D4E414E000001002D4E414E0049EE
:100074004E460000020004005400020075026400B1
:10008400010079026C000000F894EE27ECBBF1E06B
:10009400F5BFE5BF8DE0A2E0BB27ED938A95E9F7B4
:1000A40080E098E0A0E6ED930197E9F7E8E7F0E057
:1000B40085919591009761F0A591B5910590159062
:1000C400BF01F00105900D920197E1F7FB01F0CF1C
:1000D400EFE5EDBFE8E0EEBFC0E6D2E00C948A00A5
:1000E400EA93E7E1E5BD05C0EA93E0E0E5BDE8E2B7
:1000F400E4BDE9911895AA93E881E7B985E28A9568
:10010400F1F7369A349BFECF349AE4B1F5B114C1B9
:10011400E0E0EABBEBBBE2E0E7BBE0E0E8BBE4BB6A
:10012400E5BBE0E8E1BBE0E0E2BBE3BFE2BFECBF7C
:10013400EFBDEDE0EEBDE0E0EDBDECBDE7BDE6BD3D
:10014400E4E5EBBDEFE5EABDE0E0E9BDE8BDE2BD15
:10015400E7E1E5BDE8E2E4BDE9E2E3BDE0E5E9BFEE
:10016400E0E0E5BFE4BFEAB9E8B9E7B9E6E8E6B933
:10017400E0E0E0BFEDB9E6BFA0E1B2D07894E0E002
:10018400E5BD979AC198459909C0E0E0EFBDEDE05F
:10019400EEBDC19A479AE0E0EBBB41C0A3E0ABDF00
:1001A4002F010E940306A0E0B0E080E990E40E94E1
:1001B4000A08DF01CB01E0E0F0E060E874E40E94AB
:1001C4005808E0936002F0936102609362027093B6
:1001D4006302C198E0E0EA93A0E043D0E4E6F2E0F1
:1001E400FA93EA93E6E5F0E0FA93EA93E091600289
:1001F400F091610260916202709163020E94410970
:1002040084E00E94C6042896A4E6B2E058D0A8EE82
:10021400B3E00E940A07E0E0E5BDEFBDEEBDB3CF59
:10022400FFCFAA93EBB3EF70AE2FE881E07FEA2B08
:10023400EBBB82E18A95F1F7DA9A82E18A95F1F7CC
:10024400DA9882E18A95F1F777C0AA93A881E9DF69
:10025400E881E295E883A881E4DF88EB8A95F1F7E9
:100264006BC0AA93E881F0E0EB58FD4FE081A981CF
:10027400AE0FEBDF7980688022960895A2E00E9499
:100284000806ACE0E2DFA1E00E940806E0E06E2E82
:100294007E2E0895AA93A881AA3011F0791448F00B
:1002A400E0E0EA936394A62DDCDFA881AA3009F488
:1002B40043C07394D89AA881C8DFD8983DC0BA9334
:1002C400AA931A93A981BA81ED91A983BA831E2FA7
:1002D400E03019F0A12FDEDFF5CF188123960895C1
:1002E400AA93EAB3E06FEABBD29AD09AD19ADA9889
:1002F400D898D9989880E881E058E0937702E8810B
:10030400E054E0937802A4E1B0E00E940A070E945E
:100314000E060E940E060E940E06A0E282DF84E111
:1003240091E00197F1F7A8E290DFA4E08EDFA5E861
:100334008CDFA6E08ADFA2DF21960895BA93AA9300
:100344001A930A93AA81BB8112960E9428093097B6
:1003540029F1AA81BB8114960E9428098F01309744
:1003640061F00230E0E01E0780F0F80131978F0160
:10037400AA81BB811496ED93FC93AA81BB8112964A
:100384000E9416063197AC81A083AA81BB810E948A
:100394002809FF2312F00E94160606C0AA81BB8119
:1003A400EFEFFFEFED93FC931981088125960895F3
:1003B4000E941C06E0E8EA83EFE3EB830E945E09F7
:1003C400EE85FF85EF3FAFEFFA0749F4E885F9853D
:1003D400FA93EA93A6E6B0E00E94FA04B7C0EF3FAE
:1003E400AFE7FA0749F4E885F985FA93EA93A7E6B3
:1003F400B0E00E94FA04AAC0AB85A73010F0E6E092
:10040400EB871B85E12F1150E03019F00E94230681
:10041400F9CFEC85FD856E857F850E94580921F40E
:1004240030E00E9423062DC03B850E94320609F06D
:1004340008F40BC00E9423060E94320628F00E9492
:100444003D060E944206F8CF0DC00E94320640F4D9
:100454000E943D060E944E060E9455063150F5CF7B
:100464000E942306EC85FD856E857F850E945A06D1
:100474000E9455060E94320620F00E943D060E940A
:10048400420610E0EB85E117A8F1AC81BD818E81B5
:100494009F810E9461060E945A06DF01CB010E94DF
:1004A4005105EC83FD836E837F830E943D060E9489
:1004B40058080E9447070E2F0E9468060E946F0684
:1004C400FF27662777270E948007AC81BD818E8134
:1004D4009F810E940A080E943D060E9474060E94A1
:1004E4005506E12F1F5FE03069F60E946806EEE2D0
:1004F400EC93C8CF0E9479063197AA85A083303047
:100504002CF43195A885B985EDE203C0A885B98599
:10051400EBE2EC930E9479060E9479063197BF01C1
:10052400A32FEAE00E94E208E05DDB01EC930E9465
:1005340079063197BF01A32FEAE00E940C09E05D20
:10054400DB01EC93A885B985E0E0EC930E94650992
:1005540060960895BA93AA93EF9761970E945C09F5
:1005640010E0FE01E85AFF4F0190F081E02DE8878A
:10057400F987FE01EA5AFF4F0190F081E02DEE83E6
:10058400FF83AE81BF81E0E0F0E0ED93FC93DE01F8
:10059400A45ABF4F0E9416063197E4912E2FE030E3
:1005A40009F4E9C1E12FE03039F4253211F411E006
:1005B40002C00E947F06DEC1E130C1F4253219F485
:1005C4000E947F06D6C112E0E0E0ED8B00E02D3200
:1005D40011F401E0CFC12B3219F4EBE2ED8BCAC167
:1005E400203219F4E0E2ED8BC5C102C0E23039F4E7
:1005F40050E013E0203311F40068BCC102C0E330C2
:1006040091F4203310F02A3308F007C0AAE05A9F6F
:10061400502DE22FE0535E0FADC140E02E3211F4B5
:1006240014E0A8C10FC0E43099F4203310F02A3349
:1006340008F008C00062AAE04A9F402DE22FE05370
:100644004E0F98C12C3619F4026015E093C103C013
:10065400E53009F08FC1E22FE33659F40E94860693
:100664000E948D060E948606A481AA930E94940685
:1006740080C1E53411F0E53609F403C0E63609F02B
:1006840048C0FE017696EE87FF870E949A060E9474
:100694002C090E94A1060E94A606AD85AA2332F069
:1006A400AD89AB3259F0A03281F017C00E94A80680
:1006B4000E9414070E94A106EDE2ED8B07FF05C01E
:1006C400ED89EA930E94940608C0EE85FF85319671
:1006D400EE87FF873197AD89A08305FF46E0263674
:1006E40051F40E94A8060E9441094A93AB89BC892F
:1006F4000E94680509C00E94A8060E9441094A9305
:100704002A93AC89BD8954DEFE0176960E94AD061B
:100714001EC0E33739F40E94A6060E94B5060E9463
:10072400AD060EC0E037C1F40E94A6060E94B506CD
:10073400EE87FF87AE85BF850E9413051E2F0860D4
:100744000F77403011F0411708F001C0142F40E03A
:10075400E0E0EC8B30E06DC0E43611F0E93611F4E2
:10076400046002C0E537A1F4EAE0EC8B01FF08C0A5
:10077400E0E0FAEC6AE97BE30E94BA061AE022C0E0
:10078400E0E1F7E260E070E00E94BA0615E01AC00A
:10079400E83511F4086003C0E83709F0EAC0E0E185
:1007A400EC8B01FF08C0E0E0F0E060E070E10E9443
:1007B400BA0618E007C0E0E0F0E160E070E00E94F3
:1007C400BA0614E0403011F00F7701C041E001FF98
:1007D40008C00E94A6060E949A0614960E942C093C
:1007E4000FC002FF07C00E94A6060E94B5060E9421
:1007F400CF0806C00E94A6060E94B5066627772782
:10080400EA87FB876C877D8702FF12C0AD85AA2328
:1008140042F40E94A8060E94C1080E94A106EDE2CB
:10082400ED8BED89E03019F01F5F4F5F01C00B7F46
:10083400342F00FD14C0151710F4351708F00FC03D
:1008440007FF08C002FF04C00B7F2D89115001C0AF
:1008540020E301C020E20E947F065150ECCF141720
:1008640090F4006102FF06C00E94BF0609F05150D7
:1008740011504150E0E3EA930E949406503009F08D
:1008840051504150ECCF312FEC89E030B9F4303085
:10089400A1F003FF06C0EE85FF852591EE87FF8753
:1008A40005C0AE85BF852D91AE87BF870E947F06A8
:1008B400503009F051503150EACF51C00E94D10656
:1008C4000E94E7082E2F2A3030F003FF02C0295C73
:1008D40001C0295A01C0205D04FD21C0213360F408
:1008E400A889B9898A899B89A130E0E0BE07E0E044
:1008F4008E07E0E09E0709F40BC0431740F453173A
:1009040010F000FF01C010C020E207FF08C020E380
:10091400006102FF04C00E94BF0609F051500E940A
:100924007F06503009F0515031500E94D1060E9488
:1009340018090E94A106EC89A889B9898A899B892A
:10094400FF27662777270E94E7080E94BA06E889EE
:10095400F9896A897B890E94580909F0AFCF00FFA1
:1009640008C0503031F05150E0E2EA930E949406FE
:10097400F8CF10E00CCEAE81BF810E9428090E94FE
:100984006309EF966F960895FF92F82E26970E94BA
:100994005E090E94DA06309719F4EFEFFFEF23C0E7
:1009A400DE0116960E94BD088D010E94DA06EE83D0
:1009B400FF83E0E0E887E987DE011A960E94BD081C
:1009C4000E942809FA93EA931A930A93E0EAF1E061
:1009D400FA93EA93DE011A96BDDD9F01AE81BF81D1
:1009E400E0E0EC93F9010E9465092A96FF900895CE
:1009F400BA93AA93E991F991A991B991CD0105907E
:100A04000D920020E1F7FC010895BA93AA93A991ED
:100A1400B991EE27FF276D91662311F03196FBCF34
:100A24000895BA93AA93AA27BB27E991F99105904F
:100A3400002011F01196FBCFFD0108950E94460994
:100A44007B816A81F981E88177FB770F67FD7160AB
:100A5400972F9E5781F078F0983190F4AA27BB27FE
:100A6400882708948795B795A7959A95D1F7EA238F
:100A7400FB23682305C0E8947727EE27FF27662722
:100A84006F77769508F4606877F9A991B99189919F
:100A94009991EA17FB076807790797FB08950E9465
:100AA40046090E9437090E9420050E943C0919F456
:100AB4000E94320909C0E6F70E943209A0E0B0E0C2
:100AC40080E89FE30E94B30724960895B3D0E0E042
:100AD400EA83EFE3EB831A930A93EB85FC85EF3FFC
:100AE400AFEFFA0731F46BD1AEE6B0E00E94FA043E
:100AF40084C0EF3FAFE7FA0731F461D1AFE6B0E06D
:100B04000E94FA047AC0AC85AA2352F4E985FA85D6
:100B14006B857C850E94140757D15BD1EDE2EC9381
:100B2400A885A73010F0E6E0E8871885E12F11507A
:100B3400E03021F055D1C3D058D1F8CF5BD10E9419
:100B4400BA0742D110E0E0E0F0E060E87FE34DD185
:100B540051D10E949D0868F043D19ED046D11F5FB9
:100B6400173230F02CD1A3E7B0E00E94FA0445C05C
:100B7400EFCF103021F42DD1E0E3EC931DC0E12F31
:100B84001150E030C9F02CD19AD092D0DF01CB01C2
:100B94000E9451052AD12ED10E9458080E9447076D
:100BA4000E2F17D19AD0F0E01BD12BD00E940A0847
:100BB4002AD198D009D1E3CFE885E030D1F009D12A
:100BC400EEE2EC93E885E150E887EF5F91F01BD10A
:100BD40063D0FAD0E985FA856B857C850E94470746
:100BE4000E2FF7D07AD0F0E00ED10BD07BD0ECD022
:100BF400E9CFAE81BF81E0E0EC93198108812D96A5
:100C040008950E94CF080E94800708950E9427013A
:100C1400A3E0B0E00C940A07A0E30E94130184E16E
:100C240091E00197F1F70895ED91FD913196FE93CE
:100C3400EE930895BA93AA932497E0E0E883E983B6
:100C44000895AC81BD818E819F81E0E0F0E060E297
:100C540071E40E940A08EC83FD836E837F83089508
:100C6400EC81FD816E817F81AC85BD858E859F85FC
:100C74000E949D080895AC85BD858E859F85089545
:100C8400EDECFCEC6CEC7DE30E940A08EC87FD873C
:100C94006E877F873F5F0895E0E0F0E060E271E4F3
:100CA4000E940A080895EC87FD876E877F87089560
:100CB400A0E0B0E080E09FE30E94BA070895EDEC65
:100CC400FCEC6CEC7DE30E940A080895A885B985C4
:100CD4001196A887B98711970895E02FE05DEC93EA
:100CE400E02F08950E944B090E94B3070895E885F8
:100CF400F9853196E887F98708952A93AF81B885F5
:100D0400E985FA8509950895FE01E65AFF4F019099
:100D1400F081E02D08953497DE01A65ABF4FED937C
:100D2400FC930895AF81B885E985FA8509950895FE
:100D3400DE01A65ABF4F0D90BC91A02D0895EA87FD
:100D4400FB876C877D870895DFDFE5CFEA85FB8528
:100D54006C857D850895EE87FF87AE85BF850E94EB
:100D640007051E2F0895E4DF14960E9428090895AC
:100D7400E88BF98B6A8B7B8B08950B7FED89EA9363
:100D8400DE01A95ABF4F0D90BC91A02DFE01E75A78
:100D9400FF4F0190F081E02D099550300895E889C6
:100DA400F9896A897B89AA85BB858C859D85089587
:100DB400DE011C960E94BD080E9428090895EE8158
:100DC400FF81FA93EA930895E987FA876B877C8712
:100DD4000895AE81BF811196AE83BF8311970895A4
:100DE400AA81BB818C819D810895EA83FB836C83F6
:100DF4007D830895EA81FB816C817D81A985BA8513
:100E04008B859C850895A985BA858B859C850895D5
:100E1400109639F0A8958DEC9AE00197F1F71197A7
:100E2400C9F7089530976040704009F070580895EC
:100E3400552342F4503811F4E0FF04C03196691F81
:100E4400791F6BF050E8572711F45F93CFC05F3FD1
:100E540031F0660F000C57956795752F08955F93D1
:100E640000200AF0CFC0C8C050E8192E1522880F00
:100E7400991F9527550F879550E8072E0522660F71
:100E8400771F7527550F67950895689401C0E894F6
:100E94005F93F2DF703818F07F3F08F4A7C056E183
:100EA400571BAAF4519558300EF4593030F0EFEF37
:100EB400FFEF6FEF7FE777F91AC077275523B9F073
:100EC400EE0FFF1F661F771F5A95D1F710C07727C3
:100ED400583028F0EF2FF62F672F5850F9CF5523AD
:100EE40031F076956795F795E7955A95D1F70020F7
:100EF4000AF445D15F910895689401C0E89430974D
:100F040060407040B1F0002426F0772312F400947E
:100F140036D1172E7EE1112032F07A95EE0FFF1FA5
:100F2400661F111CF9CFEF2FF62F612D5F938ADF17
:100F34005F9108954F93AF01FD01DA01AB01BC014C
:100F4400CA01402D012C142E4F910895EA0FFB1F66
:100F5400681F0895E095F0956095EF5FFF4F6F4F20
:100F640008955F9381DF903871F150E8152604C02D
:100F74005F937ADF903839F1703821F1572F591B7C
:100F84002BF112F4D7DFFACF583118F0AA27BB2778
:100F94008827583028F0AB2FB82F88275850F9CF1E
:100FA400552329F08695B795A7955A95D9F7502DCD
:100FB400512572F0CBDF38F46795F795E795739573
:100FC40013F420C0B7DF3EDF5F910895D8F7FBCF5D
:100FD400EA1BFB0B680B51F010F40094BBDF662393
:100FE40092F3EE0FFF1F661F7A95CBF7EE27FF27CC
:100FF400662777275F910895EFEFFFEF6FE77FEFA5
:101004005F910895EFEFFFEF6FE77FE75F9108953A
:101014005F932ADF703851F3903841F30124089428
:10102400791F23F41CF300203AF3ECCF0F921F93A3
:101034002F933F934F93112722279927689FA0014D
:101044008F9F302D410D591F6B9F300D411D591F2E
:101054008E9F27D0BF9F25D06A9F23D0BE9F1DD0CF
:10106400AF9F1BD0AE9F110D291F391F491F591F58
:10107400E32FF42F652F522F4F913F912F911F9102
:101084000F9066232AF0550FEE1FFF1F661F02C044
:1010940073954BF2CDDE5F910895100D211D391F1C
:1010A40002C0200D311D491F591F08955F93DCDED6
:1010B400703821F411200AF49FCFA4CF903809F49A
:1010C40095CF01240894970B1BF4D4F30020F3CF9D
:1010D400792F1F932F933F934F9311241127222786
:1010E40033274427552790E2AE17BF0786074107E9
:1010F40030F0AE1BBF0B860B410B089401C08894E3
:10110400551F221F331F111CAA1FBB1F881F441FFA
:101114009A9551F7F901612D4F913F912F911F91AC
:10112400662332F0550FEE1FFF1F661F7A9543F2B8
:101134007FDE5F91089599239AF0772342F0971701
:1011440048F029F4AE17BF07860720F031F09894D1
:101154008894089598940894089518948894089508
:101164007723C2F7971798F3A9F7EA17FB076807DD
:1011740088F399F3ECCF0024AF0DB01D0895F095DA
:1011840060957095E195FF4F6F4F7F4F0895FE2F47
:10119400FF0FFF0B6F2F7F2F08956F2F660F660BC6
:1011A400762F0895002498E0AA0F001C0E1A10F45C
:1011B4000E0E01C0A1609A95B9F7EA2FA02D0895EB
:1011C40039D0F0DF0EF4E19508953F934F935F9388
:1011D400002411244427552730E2AA0FBB1F881F7F
:1011E400991F001C111C441F551F0E1A1F0A460B81
:1011F400570B28F40E0E1F1E461F571F01C0A16077
:101204003A9559F7FD01BC01D001CA015F914F9194
:101214003F910895E894A7FF02C0A1956894E7FD63
:10122400E195C0DFEA2F0EF4E1950895CEDFFD01CC
:10123400BC010895E894E7FF02C0E1956894A7FF14
:1012440004C0A19500F8039400FA0895ED91FC916F
:1012540011970895ED91FD916D917C9113970895E7
:10126400E881F9816A817B810895A881B9818A81A5
:101274009B810895E883F9836A837B8308957A9335
:101284006A93FA93EA9308959A938A93BA93AA93E2
:101294000895182E862F612D192E972F712D1B2E30
:1012A400BF2FF12D1A2EAE2FE12D089530976040F7
:1012B400704008955A934A933A932A931A930A933F
:1012C40008955D814C813B812A81198108810895AB
:00000001FF
