:0C0000000C947E000C9400000C94AA00EC
:10000C000C9400000C9400000C9400000C94000064
:10001C000C9400000C9400000C9400000C94000054
:10002C000C9400000C9400000C9400000C94000044
:10003C000C9400000C9400000C9400000C94000034
:10004C000C9400000C9400001027E80364000A00D4
:10005C000100001000011000010000000000000071
:10006C00000006070001020304050706050403024D
:10007C00010006070001020304050706050403023C
:10008C000100494373207465737465643A202575C7
:10009C000054657374696E67207468652049430069
:1000AC004943206973203734303520004943206997
:1000BC00732037343038200049432069732037349B
:1000CC0033353320004943206973203734333532BC
:1000DC0020004943206E6F7420666F756E6420009B
:1000EC0080C008000600660002007202EC000000EE
:1000FC00F894EE27ECBBF1E0F5BFE5BF8DE0A2E094
:10010C00BB27ED938A95E9F780E098E0A0E6ED93A4
:10011C000197E9F7EEEEF0E085919591009761F08B
:10012C00A591B59105901590BF01F00105900D9228
:10013C000197E1F7FB01F0CFEFE5EDBFE8E0EEBF93
:10014C00C0E6D2E00C94FA01EA93FA93EFB7EA9383
:10015C000E941106E1E07E2EF40131964F010E94BF
:10016C0018062696E991EFBFF991E99118951A9323
:10017C0010E0BB24EAB3EB65EABBE4B3E763E4BB92
:10018C00D298D598A398A698EBB3E462EBBBE5B3F1
:10019C00E864E5BBDE98A89AEBB3EB61EBBBE5B387
:1001AC00E663E5BBCA9902C0E1E0BE2ECD9902C060
:1001BC00E1E0BE2E9B9902C0E1E0BE2E9E9902C0EA
:1001CC00E1E0BE2ED898D998DB98DC98A998AA982B
:1001DC00AC98AD98CA9B02C0E1E0BE2ECD9B02C08C
:1001EC00E1E0BE2E9B9B02C0E1E0BE2E9E9B02C0B6
:1001FC00E1E0BE2EEBB3E960EBBBD998DC98E5B33C
:10020C00E261E5BBAA98AD98CA9B02C0E1E0BE2EA4
:10021C00CD9B02C0E1E0BE2E9B9B02C0E1E0BE2E56
:10022C009E9B02C0E1E0BE2E19910895AA24EAB368
:10023C00E565EABBE4B3EB62E4BBD198D398D598FF
:10024C00A298A498A698EBB3EA62EBBBE5B3E4657D
:10025C00E5BBDE98A89AEBB3EA7EEBBBE5B3E57D94
:10026C000E94E704EFE3E0937102EC1511F0E1E07A
:10027C00AE2EAAE0B0E00E94D505EBB3E561EBBB76
:10028C00E5B3EA620E94E704E0E0E0937102EC154A
:10029C0011F0E1E0AE2E0895609780E1A0E0B0E0AF
:1002AC00EEE6F0E00E941F060E94130666240E94F0
:1002BC00210539E010E0123078F5393031F4EBB328
:1002CC00E462EBBBDB98DC9805C0DA98DD98EBB305
:1002DC00E861EBBB5524D99A0E943605E02F0E94A9
:1002EC00FA050E944105D99A0E9447050E944105D2
:1002FC00D9980E9436050E945A050E944105D9984A
:10030C000E9447055E2ED89A351519F0E1E06E2E45
:10031C0003C036E01F5FCFCF39E010E0123078F524
:10032C00393031F4E5B3E864E5BBAC98AD9805C061
:10033C00AB98AE98E5B3E063E5BB5524D99A0E941F
:10034C006305E02F0E94FA050E946E05D99A0E945F
:10035C0074050E946E05D9980E9463050E945A0587
:10036C000E946E05D9980E9474055E2EA99A3515C7
:10037C0019F0E1E06E2E03C036E01F5FCFCF0E9474
:10038C001A060C949804609780E1A0E0B0E0EEE7C8
:10039C00F0E00E941F060E941306DD240E94210536
:1003AC00D69ADE9AD698DE9ACE9902C0E1E0DE2E7D
:1003BC00D69ADE98D698DE9ACE9B02C0E1E0DE2E6D
:1003CC00A79AAF9AA798AF9A9F9902C0E1E0DE2E48
:1003DC00A79AAF98A798AF9A9E9B02C0E1E0DE2E39
:1003EC000E941A060C949804E0E0EABBEBBBE6E032
:1003FC00E7BBE0E0E8BBE4BBE5BBE1BBE8E0E2BBAC
:10040C00EBB7E068EBBFE2E0E5BFE0E0E4BFE0E8BB
:10041C00EABFA0E1E6D07894A0E1E3D0A0E1E1D07E
:10042C00A1D0772091F40E947F05EEE8F0E0FA93DA
:10043C00EA93F4010E94F0050E940C0684E00E94ED
:10044C009A0428960E948905ECCF772009F457C0AE
:10045C000E948D05EDE9F0E00E949005A4EFB1E05B
:10046C000E94D505E3DEAA2041F40E948D05ECEA3A
:10047C00F0E00E9490050E94970579DEBB2041F4C4
:10048C000E948D05E8EBF0E00E9490050E94970514
:10049C0003DF6620B1F477DFDD2029F40E948D059F
:1004AC00E4ECF0E004C00E948D05E1EDF0E0FA937D
:1004BC00EA9380E00E949A0424960E9489050E9487
:1004CC009705A62DE1E00E94F5050E2EAB2DE1E07F
:1004DC000E94F5050E22AA2DE1E00E94F5050E22E0
:1004EC00AD2DE1E00E94F505E02141F00E948D0563
:1004FC00EEEDF0E00E9490050E94970577248ECFD8
:10050C00FFCFAA93E2B3EF70AE2FE881E07FEA2B26
:10051C00E2BB82E18A95F1F7929A82E18A95F1F732
:10052C00929882E18A95F1F789C0AA93A881E9DFB4
:10053C00E881E295E883A881E4DF88EB8A95F1F7FE
:10054C007DC0AA93E881F0E0EE58FD4FE081A981CF
:10055C00AE0FEBDFE981E0937602E881E09377025E
:10056C0022960895A2E00E949B05ACE0DEDFA1E09C
:10057C000E949B05E0E0E0937702E09376020895F9
:10058C00AA93A881AA3031F0E0917802A09176026A
:10059C00AE1760F0E0E0EA93A0917702AF5FA09312
:1005AC007702CFDFA881AA3009F448C0E091760227
:1005BC00EF5FE0937602909AA881B7DF90983EC0E7
:1005CC00BA93AA931A93A981BA81ED91A983BA839C
:1005DC001E2FE03019F0A12FD3DFF5CF1881239611
:1005EC000895AA93E1B3E06FE1BB8A9A889A899A3D
:1005FC00929890989198E881E0937802E058E09373
:10060C007402E881E054E0937502A4E1B0E00E942A
:10061C00D5050E94A1050E94A1050E94A105A0E29A
:10062C0070DF84E191E00197F1F7A8E27EDFA4E0AE
:10063C007CDFA5E87ADFA6E078DF94DF21960895C9
:10064C00BA93AA931A930A93AA81BB8112960E9419
:10065C000406309759F1AA81BB8114960E940406B6
:10066C008F01309761F00230E0E01E0798F0F8013E
:10067C0031978F01AA81BB811496ED93FC93AA81CB
:10068C00BB811296ED91FD913196FE93EE933197CD
:10069C00AC81A083AA81BB810E940406FF232AF0AF
:1006AC00ED91FD913196FE93EE9306C0AA81BB812C
:1006BC00EFEFFFEFED93FC931981088125960895D8
:1006CC00BA93AA9326970E94110610E0AC85BD85BB
:1006DC00E0E0F0E0ED93FC93EA89FB893196EA8B3C
:1006EC00FB8B3197E4912E2FE03009F415C1E12FEB
:1006FC00E03039F4253211F411E002C00E94A90552
:10070C000AC1E130A9F4253219F40E94A90502C1ED
:10071C0012E040E000E02D3211F401E0FCC02B327D
:10072C0011F44BE2F8C0203211F440E2F4C002C0E4
:10073C00E23039F450E013E0203311F40068EBC0E0
:10074C0003C0E33009F0E7C0203310F02A3308F07F
:10075C0007C0AAE05A9F502DE22FE0535E0FDBC07A
:10076C00E22FE33649F40E94B005E889F989A481A7
:10077C00AA930E94B605CEC0E33741F40E94B0059F
:10078C000E94BC050E94CE041E2F0AC0E03761F403
:10079C000E94B0050E94BC050E94DA041E2F08605E
:1007AC0002600F7730E034C0E43611F0E93611F412
:1007BC00046002C0E53731F4E4E5F0E0EE83FF833A
:1007CC0015E00CC0E83511F4086003C0E83709F0F7
:1007DC00A1C0EEE5F0E0EE83FF8314E002FF14C04D
:1007EC000E94B0050E94C605AB85AA233AF4EA859F
:1007FC00FB850E94E305EA87FB874DE2403011F050
:10080C001F5F01C00B7F04C00E94B0050E94C6058B
:10081C0000FD11C0151778F407FF08C002FF04C0D3
:10082C000B7F242F115001C020E301C020E20E9455
:10083C00A9055150EFCF312F01FF17C03030A1F077
:10084C0003FF06C0EE81FF812591EE83FF8305C077
:10085C00AE81BF812D91AE83BF830E94A90550301C
:10086C0009F051503150EACF4BC020E3EE81FF81AB
:10087C000E940806E887F987EE81FF813296EE83A5
:10088C00FF83E885F985AA85BB85AE17BF0750F0B5
:10089C002F5FA885B985EA85FB85EA1BFB0BEA87E8
:1008AC00FB87EFCF2A3328F003FF02C0295F01C07A
:1008BC00295D04FD1AC0213320F4A885B985119750
:1008CC0009F409C0531710F000FF01C013C020E257
:1008DC0007FF0BC020E3006102FF07C00B7F4A93A8
:1008EC000E94B605503009F051500E94A9055030B5
:1008FC0009F051503150A885B985129708F0B5CF41
:10090C0000FF08C0503031F05150E0E2EA930E94F1
:10091C00B605F8CF10E0E0CEAC85BD850E9404068C
:10092C000E94180664960895FF92F82E26970E944E
:10093C0013060E94CE05309719F4EFEFFFEF23C09A
:10094C00DE0116960E94DF058D010E94CE05EE8316
:10095C00FF83E0E0E887E987DE011A960E94DF0555
:10096C000E940406FA93EA931A930A93E6E2F3E0E0
:10097C00FA93EA93DE011A96A3DE9F01AE81BF8142
:10098C00E0E0EC93F9010E941A062A96FF90089574
:10099C00BA93AA93A991B991EE27FF276D9166237B
:1009AC0011F03196FBCF0895BA93AA93AA27BB27CF
:1009BC00E991F9910590002011F01196FBCFFD0102
:1009CC000895E5BBE9B3F0E0F595E795E170AE2F3E
:1009DC00E9B3F0E00E94E905E170EE0FEA2BAE2FCF
:1009EC00E9B3F0E0F595E7950E94E705E170EE0FAD
:1009FC00EE0FEA2BAE2FE3B3F0E00E94EB05E170B3
:100A0C00EE0FEE0FEE0FEA2BAE2FE3B3F0E00E94E9
:100A1C00E705E170E295E07FEA2BAE2FE3B3F0E05F
:100A2C000E94EB050E94E705E170E295E07FEE0F76
:100A3C00EA2BCE2E0895E0E0EABBE4BBD698A7984B
:100A4C00DE9AAF9AEAB3EF6BEABBE4B3EF67E4BBB1
:100A5C00E0E0EBBBE5BBDF98A89AD89AA99A089579
:100A6C00AA9AD898A2E0B0E00E94D505E0E0CE9911
:100A7C00E1E00E2F08955E2ED89AA2E0B0E00C941F
:100A8C00D505AA98D898A2E0B0E00E94D505E0E080
:100A9C00CE99E1E00E2FE52DEE0FAE2FE02FF0E01A
:100AAC000E94FF05EA2B0895E52DEE0FAE2FE02FE7
:100ABC00F0E00E94FF05EA2B0895AA9AA998A2E0FB
:100ACC00B0E00E94D505E0E09F99E1E00E2F08957B
:100ADC005E2EA99AA2E0B0E00C94D505AA98A9982C
:100AEC00A2E0B0E00E94D505E0E09F99E1E00E2F76
:100AFC00DBCFE0E0EA93A0E00E94A702E0E6F2E0A0
:100B0C00FA93EA930895A0E6B2E00C94E6020E94F0
:100B1C00B802EFCFFA93EA9380E00E949A042496ED
:100B2C00F2CFA0EDB7E00C94D5050E949B02A3E098
:100B3C00B0E00C94D505A0E30E94870284E191E01B
:100B4C000197F1F708952A93AD85BE85EF85F88955
:100B5C0009950895E889F9893497E88BF98B0895FC
:100B6C00AD85BE85EF85F88909950895A889B98961
:100B7C0014960E940406EE83FF83AE81BF81089514
:100B8C00A889B98914960E940406EA87FB87089500
:100B9C00DE011C960E94DF050E9404060895109643
:100BAC0039F0A8958DEC9AE00197F1F71197C9F7F8
:100BBC0008950024AF0DB01D0895F195E195F04016
:100BCC000895F595E795F595E795F595E795F595E0
:100BDC00E79508956F2F660F660B762F0895EA1729
:100BEC00E1E009F0EE270895EE23E1E009F0EE27AD
:100BFC000895EF2BE1E009F0E0E00895ED91FC9110
:100C0C00119708950590F491E02D08957A936A93C5
:100C1C00FA93EA9308955A934A933A932A931A9320
:100C2C000A9308955D814C813B812A811981088149
:100C3C000895AC0FBD1F05900D928A95E1F70895AC
:00000001FF
